{
  "contractName": "CommunityChest",
  "abi": [
    {
      "constant": true,
      "inputs": [],
      "name": "getBalance",
      "outputs": [
        {
          "name": "",
          "type": "uint256"
        }
      ],
      "payable": false,
      "stateMutability": "view",
      "type": "function"
    }
  ],
  "bytecode": "0x6080604052348015600f57600080fd5b5060b78061001e6000396000f3fe608060405260043610603f576000357c0100000000000000000000000000000000000000000000000000000000900463ffffffff16806312065fe0146044575b600080fd5b348015604f57600080fd5b506056606c565b6040518082815260200191505060405180910390f35b60003073ffffffffffffffffffffffffffffffffffffffff163190509056fea165627a7a723058202d649e464ffeffc2f6bf0a34e66bc791016b36a54385b1f487e60adf84ce23a70029",
  "source": "pragma solidity ^0.5.0;\n\ncontract CommunityChest {\n    function getBalance() public view returns (uint256) {\n        return address(this).balance;\n    }\n}",
  "sourcePath": "/home/anshu1/dapps/MetroBiki/contracts/showbalance.sol",
  "compiler": {
    "name": "solc",
    "version": "0.5.0+commit.1d4f565a.Emscripten.clang"
  },
  "schemaVersion": "3.0.1",
  "updatedAt": "2019-03-16T13:04:57.298Z",
  "devdoc": {
    "methods": {}
  },
  "userdoc": {
    "methods": {}
  }
}