{
  "contractName": "Escrow",
  "abi": [
    {
      "constant": true,
      "inputs": [],
      "name": "seller",
      "outputs": [
        {
          "name": "",
          "type": "address"
        }
      ],
      "payable": false,
      "stateMutability": "view",
      "type": "function"
    },
    {
      "constant": true,
      "inputs": [],
      "name": "buyer",
      "outputs": [
        {
          "name": "",
          "type": "address"
        }
      ],
      "payable": false,
      "stateMutability": "view",
      "type": "function"
    },
    {
      "inputs": [
        {
          "name": "_buyer",
          "type": "address"
        },
        {
          "name": "_seller",
          "type": "address"
        }
      ],
      "payable": false,
      "stateMutability": "nonpayable",
      "type": "constructor"
    },
    {
      "constant": false,
      "inputs": [],
      "name": "confirmPayment",
      "outputs": [],
      "payable": true,
      "stateMutability": "payable",
      "type": "function"
    },
    {
      "constant": false,
      "inputs": [],
      "name": "confirmDelivery",
      "outputs": [],
      "payable": false,
      "stateMutability": "nonpayable",
      "type": "function"
    }
  ],
  "bytecode": "0x608060405234801561001057600080fd5b506040516040806105e88339810180604052604081101561003057600080fd5b81019080805190602001909291908051906020019092919050505081600060016101000a81548173ffffffffffffffffffffffffffffffffffffffff021916908373ffffffffffffffffffffffffffffffffffffffff16021790555080600160006101000a81548173ffffffffffffffffffffffffffffffffffffffff021916908373ffffffffffffffffffffffffffffffffffffffff160217905550505061050a806100de6000396000f3fe608060405260043610610062576000357c0100000000000000000000000000000000000000000000000000000000900463ffffffff16806308551a53146100675780635e10177b146100be57806362ef1f81146100d55780637150d8ae146100df575b600080fd5b34801561007357600080fd5b5061007c610136565b604051808273ffffffffffffffffffffffffffffffffffffffff1673ffffffffffffffffffffffffffffffffffffffff16815260200191505060405180910390f35b3480156100ca57600080fd5b506100d361015c565b005b6100dd61030a565b005b3480156100eb57600080fd5b506100f46104b8565b604051808273ffffffffffffffffffffffffffffffffffffffff1673ffffffffffffffffffffffffffffffffffffffff16815260200191505060405180910390f35b600160009054906101000a900473ffffffffffffffffffffffffffffffffffffffff1681565b600060019054906101000a900473ffffffffffffffffffffffffffffffffffffffff1673ffffffffffffffffffffffffffffffffffffffff163373ffffffffffffffffffffffffffffffffffffffff16141515610221576040517f08c379a000000000000000000000000000000000000000000000000000000000815260040180806020018281038252600a8152602001807f4e4f54204255594552210000000000000000000000000000000000000000000081525060200191505060405180910390fd5b600180600281111561022f57fe5b6000809054906101000a900460ff16600281111561024957fe5b1415156102e4576040517f08c379a00000000000000000000000000000000000000000000000000000000081526004018080602001828103825260248152602001807f4e6f7420617661696c61626c6520696e2074686520726571756972656420737481526020017f617465210000000000000000000000000000000000000000000000000000000081525060400191505060405180910390fd5b60026000806101000a81548160ff0219169083600281111561030257fe5b021790555050565b600060019054906101000a900473ffffffffffffffffffffffffffffffffffffffff1673ffffffffffffffffffffffffffffffffffffffff163373ffffffffffffffffffffffffffffffffffffffff161415156103cf576040517f08c379a000000000000000000000000000000000000000000000000000000000815260040180806020018281038252600a8152602001807f4e4f54204255594552210000000000000000000000000000000000000000000081525060200191505060405180910390fd5b60008060028111156103dd57fe5b6000809054906101000a900460ff1660028111156103f757fe5b141515610492576040517f08c379a00000000000000000000000000000000000000000000000000000000081526004018080602001828103825260248152602001807f4e6f7420617661696c61626c6520696e2074686520726571756972656420737481526020017f617465210000000000000000000000000000000000000000000000000000000081525060400191505060405180910390fd5b60016000806101000a81548160ff021916908360028111156104b057fe5b021790555050565b600060019054906101000a900473ffffffffffffffffffffffffffffffffffffffff168156fea165627a7a7230582088cf14914f9c8328eb9f011f44226c56b7f4905994a86284fe451385014c06390029",
  "source": "pragma solidity ^0.5.0;\n\ncontract Escrow {\n\n    enum State {AWAITING_PAYMENT, AWAITING_DELIVERY, COMPLETE}\n    State currentState;\n\n    address public buyer;\n    address public seller;\n\n    modifier buyerOnly() {\n        require(msg.sender == buyer, \"NOT BUYER!\");\n        _;\n    }\n\n    modifier inState(State expectedState) {\n        require(currentState == expectedState, \"Not available in the required state!\");\n        _;\n    }\n\n    constructor(address _buyer, address _seller) public {\n        buyer = _buyer;\n        seller = _seller;\n    }\n\n    function confirmPayment() external buyerOnly inState(State.AWAITING_PAYMENT) payable {\n        currentState = State.AWAITING_DELIVERY;\n    }\n\n    function confirmDelivery() external buyerOnly inState(State.AWAITING_DELIVERY) {\n        // seller.transfer(address(this).balance);\n        currentState = State.COMPLETE;\n    }\n\n}",
  "sourcePath": "/home/anshu1/Desktop/Gauranga/contracts/Escrow.sol",
  "compiler": {
    "name": "solc",
    "version": "0.5.0+commit.1d4f565a.Emscripten.clang"
  },
  "schemaVersion": "3.0.1",
  "updatedAt": "2019-03-17T07:08:21.730Z",
  "devdoc": {
    "methods": {}
  },
  "userdoc": {
    "methods": {}
  }
}