{
  "contractName": "ForSale",
  "abi": [
    {
      "constant": true,
      "inputs": [
        {
          "name": "",
          "type": "uint256"
        }
      ],
      "name": "bicycles",
      "outputs": [
        {
          "name": "Model",
          "type": "string"
        },
        {
          "name": "Color",
          "type": "string"
        },
        {
          "name": "Owner",
          "type": "address"
        },
        {
          "name": "upvoteCount",
          "type": "uint32"
        },
        {
          "name": "downvoteCount",
          "type": "uint32"
        },
        {
          "name": "boughtAtTime",
          "type": "uint16"
        },
        {
          "name": "price",
          "type": "uint256"
        },
        {
          "name": "state",
          "type": "uint8"
        }
      ],
      "payable": false,
      "stateMutability": "view",
      "type": "function"
    },
    {
      "constant": true,
      "inputs": [
        {
          "name": "",
          "type": "uint256"
        }
      ],
      "name": "users",
      "outputs": [
        {
          "name": "",
          "type": "address"
        }
      ],
      "payable": false,
      "stateMutability": "view",
      "type": "function"
    },
    {
      "constant": false,
      "inputs": [],
      "name": "renounceOwnership",
      "outputs": [],
      "payable": false,
      "stateMutability": "nonpayable",
      "type": "function"
    },
    {
      "constant": true,
      "inputs": [
        {
          "name": "",
          "type": "address"
        }
      ],
      "name": "ownerBicycleCount",
      "outputs": [
        {
          "name": "",
          "type": "uint256"
        }
      ],
      "payable": false,
      "stateMutability": "view",
      "type": "function"
    },
    {
      "constant": true,
      "inputs": [],
      "name": "owner",
      "outputs": [
        {
          "name": "",
          "type": "address"
        }
      ],
      "payable": false,
      "stateMutability": "view",
      "type": "function"
    },
    {
      "constant": true,
      "inputs": [],
      "name": "isOwner",
      "outputs": [
        {
          "name": "",
          "type": "bool"
        }
      ],
      "payable": false,
      "stateMutability": "view",
      "type": "function"
    },
    {
      "constant": false,
      "inputs": [
        {
          "name": "_bicycleId",
          "type": "uint256"
        }
      ],
      "name": "upvoteBicycle",
      "outputs": [],
      "payable": false,
      "stateMutability": "nonpayable",
      "type": "function"
    },
    {
      "constant": true,
      "inputs": [
        {
          "name": "",
          "type": "uint256"
        }
      ],
      "name": "bicycleToOwner",
      "outputs": [
        {
          "name": "",
          "type": "address"
        }
      ],
      "payable": false,
      "stateMutability": "view",
      "type": "function"
    },
    {
      "constant": false,
      "inputs": [
        {
          "name": "_bicycleId",
          "type": "uint256"
        }
      ],
      "name": "downvoteBicycle",
      "outputs": [],
      "payable": false,
      "stateMutability": "nonpayable",
      "type": "function"
    },
    {
      "constant": false,
      "inputs": [
        {
          "name": "_Model",
          "type": "string"
        },
        {
          "name": "_Color",
          "type": "string"
        }
      ],
      "name": "registerBicycle",
      "outputs": [],
      "payable": false,
      "stateMutability": "nonpayable",
      "type": "function"
    },
    {
      "constant": true,
      "inputs": [
        {
          "name": "",
          "type": "uint256"
        }
      ],
      "name": "bicycleForSale",
      "outputs": [
        {
          "name": "",
          "type": "uint256"
        }
      ],
      "payable": false,
      "stateMutability": "view",
      "type": "function"
    },
    {
      "constant": false,
      "inputs": [
        {
          "name": "newOwner",
          "type": "address"
        }
      ],
      "name": "transferOwnership",
      "outputs": [],
      "payable": false,
      "stateMutability": "nonpayable",
      "type": "function"
    },
    {
      "anonymous": false,
      "inputs": [
        {
          "indexed": false,
          "name": "id",
          "type": "uint256"
        },
        {
          "indexed": false,
          "name": "Model",
          "type": "string"
        },
        {
          "indexed": false,
          "name": "Color",
          "type": "string"
        }
      ],
      "name": "NewBicycle",
      "type": "event"
    },
    {
      "anonymous": false,
      "inputs": [
        {
          "indexed": true,
          "name": "previousOwner",
          "type": "address"
        },
        {
          "indexed": true,
          "name": "newOwner",
          "type": "address"
        }
      ],
      "name": "OwnershipTransferred",
      "type": "event"
    },
    {
      "constant": false,
      "inputs": [
        {
          "name": "_bicycleId",
          "type": "uint256"
        },
        {
          "name": "_price",
          "type": "uint256"
        }
      ],
      "name": "putForSale",
      "outputs": [],
      "payable": false,
      "stateMutability": "nonpayable",
      "type": "function"
    },
    {
      "constant": true,
      "inputs": [],
      "name": "displayBicyclesForSale",
      "outputs": [
        {
          "name": "",
          "type": "uint256[]"
        }
      ],
      "payable": false,
      "stateMutability": "view",
      "type": "function"
    }
  ],
  "bytecode": "0x6080604052336000806101000a81548173ffffffffffffffffffffffffffffffffffffffff021916908373ffffffffffffffffffffffffffffffffffffffff1602179055506000809054906101000a900473ffffffffffffffffffffffffffffffffffffffff1673ffffffffffffffffffffffffffffffffffffffff16600073ffffffffffffffffffffffffffffffffffffffff167f8be0079c531659141344cd1fd0a4f28419497f9722a3daafe3b4186f6b6457e060405160405180910390a36118cf806100cf6000396000f3fe6080604052600436106100d0576000357c0100000000000000000000000000000000000000000000000000000000900463ffffffff16806320b6f13d146100d5578063365b98b2146102795780633cd76be2146102f4578063715018a61461033957806386eb2087146103505780638da5cb5b146103b55780638f32d59b1461040c57806396a588be1461043b578063a4b23b2114610476578063b9ca9f38146104e2578063c10be00b1461055d578063c7a9493114610598578063ca6d8ee0146106f7578063f2fde38b14610746575b600080fd5b3480156100e157600080fd5b5061010e600480360360208110156100f857600080fd5b8101908080359060200190929190505050610797565b6040518080602001806020018973ffffffffffffffffffffffffffffffffffffffff1673ffffffffffffffffffffffffffffffffffffffff1681526020018863ffffffff1663ffffffff1681526020018763ffffffff1663ffffffff1681526020018661ffff1661ffff16815260200185815260200184600381111561019057fe5b60ff16815260200183810383528b818151815260200191508051906020019080838360005b838110156101d05780820151818401526020810190506101b5565b50505050905090810190601f1680156101fd5780820380516001836020036101000a031916815260200191505b5083810382528a818151815260200191508051906020019080838360005b8381101561023657808201518184015260208101905061021b565b50505050905090810190601f1680156102635780820380516001836020036101000a031916815260200191505b509a505050505050505050505060405180910390f35b34801561028557600080fd5b506102b26004803603602081101561029c57600080fd5b8101908080359060200190929190505050610979565b604051808273ffffffffffffffffffffffffffffffffffffffff1673ffffffffffffffffffffffffffffffffffffffff16815260200191505060405180910390f35b34801561030057600080fd5b506103376004803603604081101561031757600080fd5b8101908080359060200190929190803590602001909291905050506109b7565b005b34801561034557600080fd5b5061034e610b0e565b005b34801561035c57600080fd5b5061039f6004803603602081101561037357600080fd5b81019080803573ffffffffffffffffffffffffffffffffffffffff169060200190929190505050610c49565b6040518082815260200191505060405180910390f35b3480156103c157600080fd5b506103ca610c61565b604051808273ffffffffffffffffffffffffffffffffffffffff1673ffffffffffffffffffffffffffffffffffffffff16815260200191505060405180910390f35b34801561041857600080fd5b50610421610c8a565b604051808215151515815260200191505060405180910390f35b34801561044757600080fd5b506104746004803603602081101561045e57600080fd5b8101908080359060200190929190505050610ce1565b005b34801561048257600080fd5b5061048b610f5b565b6040518080602001828103825283818151815260200191508051906020019060200280838360005b838110156104ce5780820151818401526020810190506104b3565b505050509050019250505060405180910390f35b3480156104ee57600080fd5b5061051b6004803603602081101561050557600080fd5b8101908080359060200190929190505050610fb3565b604051808273ffffffffffffffffffffffffffffffffffffffff1673ffffffffffffffffffffffffffffffffffffffff16815260200191505060405180910390f35b34801561056957600080fd5b506105966004803603602081101561058057600080fd5b8101908080359060200190929190505050610fe6565b005b3480156105a457600080fd5b506106f5600480360360408110156105bb57600080fd5b81019080803590602001906401000000008111156105d857600080fd5b8201836020820111156105ea57600080fd5b8035906020019184600183028401116401000000008311171561060c57600080fd5b91908080601f016020809104026020016040519081016040528093929190818152602001838380828437600081840152601f19601f8201169050808301925050505050505091929192908035906020019064010000000081111561066f57600080fd5b82018360208201111561068157600080fd5b803590602001918460018302840111640100000000831117156106a357600080fd5b91908080601f016020809104026020016040519081016040528093929190818152602001838380828437600081840152601f19601f820116905080830192505050505050509192919290505050611260565b005b34801561070357600080fd5b506107306004803603602081101561071a57600080fd5b810190808035906020019092919050505061126e565b6040518082815260200191505060405180910390f35b34801561075257600080fd5b506107956004803603602081101561076957600080fd5b81019080803573ffffffffffffffffffffffffffffffffffffffff169060200190929190505050611291565b005b6001818154811015156107a657fe5b9060005260206000209060050201600091509050806000018054600181600116156101000203166002900480601f0160208091040260200160405190810160405280929190818152602001828054600181600116156101000203166002900480156108525780601f1061082757610100808354040283529160200191610852565b820191906000526020600020905b81548152906001019060200180831161083557829003601f168201915b505050505090806001018054600181600116156101000203166002900480601f0160208091040260200160405190810160405280929190818152602001828054600181600116156101000203166002900480156108f05780601f106108c5576101008083540402835291602001916108f0565b820191906000526020600020905b8154815290600101906020018083116108d357829003601f168201915b5050505050908060020160009054906101000a900473ffffffffffffffffffffffffffffffffffffffff16908060020160149054906101000a900463ffffffff16908060020160189054906101000a900463ffffffff169080600201601c9054906101000a900461ffff16908060030154908060040160009054906101000a900460ff16905088565b60048181548110151561098857fe5b906000526020600020016000915054906101000a900473ffffffffffffffffffffffffffffffffffffffff1681565b6002600083815260200190815260200160002060009054906101000a900473ffffffffffffffffffffffffffffffffffffffff1673ffffffffffffffffffffffffffffffffffffffff163373ffffffffffffffffffffffffffffffffffffffff16141515610a8d576040517f08c379a00000000000000000000000000000000000000000000000000000000081526004018080602001828103825260158152602001807f4e6f74206f776e6572206f662062696379636c6521000000000000000000000081525060200191505060405180910390fd5b6000600183815481101515610a9e57fe5b9060005260206000209060050201905060018160040160006101000a81548160ff02191690836003811115610acf57fe5b02179055508181600301819055506006839080600181540180825580915050906001820390600052602060002001600090919290919091505550505050565b610b16610c8a565b1515610b8a576040517f08c379a000000000000000000000000000000000000000000000000000000000815260040180806020018281038252600a8152602001807f4e6f74206f776e6572210000000000000000000000000000000000000000000081525060200191505060405180910390fd5b600073ffffffffffffffffffffffffffffffffffffffff166000809054906101000a900473ffffffffffffffffffffffffffffffffffffffff1673ffffffffffffffffffffffffffffffffffffffff167f8be0079c531659141344cd1fd0a4f28419497f9722a3daafe3b4186f6b6457e060405160405180910390a360008060006101000a81548173ffffffffffffffffffffffffffffffffffffffff021916908373ffffffffffffffffffffffffffffffffffffffff160217905550565b60036020528060005260406000206000915090505481565b60008060009054906101000a900473ffffffffffffffffffffffffffffffffffffffff16905090565b60008060009054906101000a900473ffffffffffffffffffffffffffffffffffffffff1673ffffffffffffffffffffffffffffffffffffffff163373ffffffffffffffffffffffffffffffffffffffff1614905090565b80600080905060008090505b600560003373ffffffffffffffffffffffffffffffffffffffff1673ffffffffffffffffffffffffffffffffffffffff16815260200190815260200160002080549050811015610da75782600560003373ffffffffffffffffffffffffffffffffffffffff1673ffffffffffffffffffffffffffffffffffffffff16815260200190815260200160002082815481101515610d8457fe5b90600052602060002001541415610d9a57610da7565b8080600101915050610ced565b50600081141515610e20576040517f08c379a00000000000000000000000000000000000000000000000000000000081526004018080602001828103825260198152602001807f416c726561647920726576696577207375626d6974746564210000000000000081525060200191505060405180910390fd5b6002600084815260200190815260200160002060009054906101000a900473ffffffffffffffffffffffffffffffffffffffff1673ffffffffffffffffffffffffffffffffffffffff163373ffffffffffffffffffffffffffffffffffffffff1614151515610ef7576040517f08c379a00000000000000000000000000000000000000000000000000000000081526004018080602001828103825260158152602001807f4f776e65722063616e206e6f742072657669657721000000000000000000000081525060200191505060405180910390fd5b6000600184815481101515610f0857fe5b9060005260206000209060050201905080600201601481819054906101000a900463ffffffff168092919060010191906101000a81548163ffffffff021916908363ffffffff1602179055505050505050565b60606006805480602002602001604051908101604052809291908181526020018280548015610fa957602002820191906000526020600020905b815481526020019060010190808311610f95575b5050505050905090565b60026020528060005260406000206000915054906101000a900473ffffffffffffffffffffffffffffffffffffffff1681565b80600080905060008090505b600560003373ffffffffffffffffffffffffffffffffffffffff1673ffffffffffffffffffffffffffffffffffffffff168152602001908152602001600020805490508110156110ac5782600560003373ffffffffffffffffffffffffffffffffffffffff1673ffffffffffffffffffffffffffffffffffffffff1681526020019081526020016000208281548110151561108957fe5b9060005260206000200154141561109f576110ac565b8080600101915050610ff2565b50600081141515611125576040517f08c379a00000000000000000000000000000000000000000000000000000000081526004018080602001828103825260198152602001807f416c726561647920726576696577207375626d6974746564210000000000000081525060200191505060405180910390fd5b6002600084815260200190815260200160002060009054906101000a900473ffffffffffffffffffffffffffffffffffffffff1673ffffffffffffffffffffffffffffffffffffffff163373ffffffffffffffffffffffffffffffffffffffff16141515156111fc576040517f08c379a00000000000000000000000000000000000000000000000000000000081526004018080602001828103825260158152602001807f4f776e65722063616e206e6f742072657669657721000000000000000000000081525060200191505060405180910390fd5b600060018481548110151561120d57fe5b9060005260206000209060050201905080600201601881819054906101000a900463ffffffff168092919060010191906101000a81548163ffffffff021916908363ffffffff1602179055505050505050565b61126a8282611319565b5050565b60068181548110151561127d57fe5b906000526020600020016000915090505481565b611299610c8a565b151561130d576040517f08c379a000000000000000000000000000000000000000000000000000000000815260040180806020018281038252600a8152602001807f4e6f74206f776e6572210000000000000000000000000000000000000000000081525060200191505060405180910390fd5b6113168161169b565b50565b6000600180610100604051908101604052808681526020018581526020013373ffffffffffffffffffffffffffffffffffffffff168152602001600063ffffffff168152602001600063ffffffff168152602001600061ffff168152602001600081526020016000600381111561138c57fe5b8152509080600181540180825580915050906001820390600052602060002090600502016000909192909190915060008201518160000190805190602001906113d69291906117fe565b5060208201518160010190805190602001906113f39291906117fe565b5060408201518160020160006101000a81548173ffffffffffffffffffffffffffffffffffffffff021916908373ffffffffffffffffffffffffffffffffffffffff16021790555060608201518160020160146101000a81548163ffffffff021916908363ffffffff16021790555060808201518160020160186101000a81548163ffffffff021916908363ffffffff16021790555060a082015181600201601c6101000a81548161ffff021916908361ffff16021790555060c0820151816003015560e08201518160040160006101000a81548160ff021916908360038111156114da57fe5b02179055505050039050336002600083815260200190815260200160002060006101000a81548173ffffffffffffffffffffffffffffffffffffffff021916908373ffffffffffffffffffffffffffffffffffffffff160217905550600360003373ffffffffffffffffffffffffffffffffffffffff1673ffffffffffffffffffffffffffffffffffffffff168152602001908152602001600020600081548092919060010191905055507faa0217ba93f92c0171284bdaf11d170f0ba69ed14f4656509c31d0e71055c557818484604051808481526020018060200180602001838103835285818151815260200191508051906020019080838360005b838110156115f35780820151818401526020810190506115d8565b50505050905090810190601f1680156116205780820380516001836020036101000a031916815260200191505b50838103825284818151815260200191508051906020019080838360005b8381101561165957808201518184015260208101905061163e565b50505050905090810190601f1680156116865780820380516001836020036101000a031916815260200191505b509550505050505060405180910390a1505050565b600073ffffffffffffffffffffffffffffffffffffffff168173ffffffffffffffffffffffffffffffffffffffff1614151515611740576040517f08c379a00000000000000000000000000000000000000000000000000000000081526004018080602001828103825260168152602001807f6e65774f776e6572203d3d20616464726573732830290000000000000000000081525060200191505060405180910390fd5b8073ffffffffffffffffffffffffffffffffffffffff166000809054906101000a900473ffffffffffffffffffffffffffffffffffffffff1673ffffffffffffffffffffffffffffffffffffffff167f8be0079c531659141344cd1fd0a4f28419497f9722a3daafe3b4186f6b6457e060405160405180910390a3806000806101000a81548173ffffffffffffffffffffffffffffffffffffffff021916908373ffffffffffffffffffffffffffffffffffffffff16021790555050565b828054600181600116156101000203166002900490600052602060002090601f016020900481019282601f1061183f57805160ff191683800117855561186d565b8280016001018555821561186d579182015b8281111561186c578251825591602001919060010190611851565b5b50905061187a919061187e565b5090565b6118a091905b8082111561189c576000816000905550600101611884565b5090565b9056fea165627a7a7230582025a8378350aaf20392848f332a2b6358563f6679efcebc24e2e916c816b5ba6b0029",
  "source": "pragma solidity ^0.5.0;\n\nimport \"./metrobikitrade.sol\";               \n\ncontract ForSale is Review {\n\n    //event NewBicycleForSale(_bicycleId, Model, Color, Price);\n\n    uint[] public bicycleForSale;\n\n    function putForSale(uint _bicycleId, uint _price) public {\n        require(msg.sender == bicycleToOwner[_bicycleId], \"Not owner of bicycle!\");\n        Bicycle storage myBicycle = bicycles[_bicycleId];\n        myBicycle.state = State.FORSALE;\n        myBicycle.price = _price;\n        bicycleForSale.push(_bicycleId);\n        //emit NewBicycleForSale(myBicycle.Model, myBicycle.Color, myBicycle.price);\n    }\n\n    function displayBicyclesForSale() external view returns(uint[] memory) {\n        return bicycleForSale;\n    }\n\n\n}",
  "sourcePath": "/home/anshu1/dapps/MetroBiki/contracts/biketrade01.sol",
  "compiler": {
    "name": "solc",
    "version": "0.5.0+commit.1d4f565a.Emscripten.clang"
  },
  "schemaVersion": "3.0.1",
  "updatedAt": "2019-03-16T13:04:57.296Z",
  "devdoc": {
    "methods": {
      "isOwner()": {
        "return": "true if `msg.sender` is the owner of the contract."
      },
      "owner()": {
        "return": "the address of the owner."
      },
      "renounceOwnership()": {
        "details": "Allows the current owner to relinquish control of the contract."
      },
      "transferOwnership(address)": {
        "details": "Allows the current owner to transfer control of the contract to a newOwner.",
        "params": {
          "newOwner": "The address to transfer ownership to."
        }
      }
    }
  },
  "userdoc": {
    "methods": {
      "renounceOwnership()": {
        "notice": "Renouncing to ownership will leave the contract without an owner. It will not be possible to call the functions with the `onlyOwner` modifier anymore."
      }
    }
  }
}