{
  "contractName": "Review",
  "abi": [
    {
      "constant": true,
      "inputs": [
        {
          "name": "",
          "type": "uint256"
        }
      ],
      "name": "bicycles",
      "outputs": [
        {
          "name": "Model",
          "type": "string"
        },
        {
          "name": "Color",
          "type": "string"
        },
        {
          "name": "Owner",
          "type": "address"
        },
        {
          "name": "upvoteCount",
          "type": "uint32"
        },
        {
          "name": "downvoteCount",
          "type": "uint32"
        },
        {
          "name": "boughtAtTime",
          "type": "uint16"
        },
        {
          "name": "price",
          "type": "uint256"
        },
        {
          "name": "state",
          "type": "uint8"
        },
        {
          "name": "buyer",
          "type": "address"
        }
      ],
      "payable": false,
      "stateMutability": "view",
      "type": "function"
    },
    {
      "constant": true,
      "inputs": [
        {
          "name": "",
          "type": "uint256"
        }
      ],
      "name": "users",
      "outputs": [
        {
          "name": "",
          "type": "address"
        }
      ],
      "payable": false,
      "stateMutability": "view",
      "type": "function"
    },
    {
      "constant": false,
      "inputs": [],
      "name": "renounceOwnership",
      "outputs": [],
      "payable": false,
      "stateMutability": "nonpayable",
      "type": "function"
    },
    {
      "constant": true,
      "inputs": [
        {
          "name": "",
          "type": "address"
        }
      ],
      "name": "ownerBicycleCount",
      "outputs": [
        {
          "name": "",
          "type": "uint256"
        }
      ],
      "payable": false,
      "stateMutability": "view",
      "type": "function"
    },
    {
      "constant": true,
      "inputs": [],
      "name": "owner",
      "outputs": [
        {
          "name": "",
          "type": "address"
        }
      ],
      "payable": false,
      "stateMutability": "view",
      "type": "function"
    },
    {
      "constant": true,
      "inputs": [],
      "name": "isOwner",
      "outputs": [
        {
          "name": "",
          "type": "bool"
        }
      ],
      "payable": false,
      "stateMutability": "view",
      "type": "function"
    },
    {
      "constant": true,
      "inputs": [
        {
          "name": "",
          "type": "uint256"
        }
      ],
      "name": "bicycleToOwner",
      "outputs": [
        {
          "name": "",
          "type": "address"
        }
      ],
      "payable": false,
      "stateMutability": "view",
      "type": "function"
    },
    {
      "constant": false,
      "inputs": [
        {
          "name": "_Model",
          "type": "string"
        },
        {
          "name": "_Color",
          "type": "string"
        }
      ],
      "name": "registerBicycle",
      "outputs": [],
      "payable": false,
      "stateMutability": "nonpayable",
      "type": "function"
    },
    {
      "constant": false,
      "inputs": [
        {
          "name": "newOwner",
          "type": "address"
        }
      ],
      "name": "transferOwnership",
      "outputs": [],
      "payable": false,
      "stateMutability": "nonpayable",
      "type": "function"
    },
    {
      "anonymous": false,
      "inputs": [
        {
          "indexed": false,
          "name": "id",
          "type": "uint256"
        },
        {
          "indexed": false,
          "name": "Model",
          "type": "string"
        },
        {
          "indexed": false,
          "name": "Color",
          "type": "string"
        }
      ],
      "name": "NewBicycle",
      "type": "event"
    },
    {
      "anonymous": false,
      "inputs": [
        {
          "indexed": true,
          "name": "previousOwner",
          "type": "address"
        },
        {
          "indexed": true,
          "name": "newOwner",
          "type": "address"
        }
      ],
      "name": "OwnershipTransferred",
      "type": "event"
    },
    {
      "constant": false,
      "inputs": [
        {
          "name": "_bicycleId",
          "type": "uint256"
        }
      ],
      "name": "upvoteBicycle",
      "outputs": [],
      "payable": false,
      "stateMutability": "nonpayable",
      "type": "function"
    },
    {
      "constant": false,
      "inputs": [
        {
          "name": "_bicycleId",
          "type": "uint256"
        }
      ],
      "name": "downvoteBicycle",
      "outputs": [],
      "payable": false,
      "stateMutability": "nonpayable",
      "type": "function"
    }
  ],
  "bytecode": "0x6080604052336000806101000a81548173ffffffffffffffffffffffffffffffffffffffff021916908373ffffffffffffffffffffffffffffffffffffffff1602179055506000809054906101000a900473ffffffffffffffffffffffffffffffffffffffff1673ffffffffffffffffffffffffffffffffffffffff16600073ffffffffffffffffffffffffffffffffffffffff167f8be0079c531659141344cd1fd0a4f28419497f9722a3daafe3b4186f6b6457e060405160405180910390a361169a806100cf6000396000f3fe6080604052600436106100af576000357c0100000000000000000000000000000000000000000000000000000000900463ffffffff16806320b6f13d146100b4578063365b98b21461028b578063715018a61461030657806386eb20871461031d5780638da5cb5b146103825780638f32d59b146103d957806396a588be14610408578063b9ca9f3814610443578063c10be00b146104be578063c7a94931146104f9578063f2fde38b14610658575b600080fd5b3480156100c057600080fd5b506100ed600480360360208110156100d757600080fd5b81019080803590602001909291905050506106a9565b6040518080602001806020018a73ffffffffffffffffffffffffffffffffffffffff1673ffffffffffffffffffffffffffffffffffffffff1681526020018963ffffffff1663ffffffff1681526020018863ffffffff1663ffffffff1681526020018761ffff1661ffff16815260200186815260200185600381111561016f57fe5b60ff1681526020018473ffffffffffffffffffffffffffffffffffffffff1673ffffffffffffffffffffffffffffffffffffffff16815260200183810383528c818151815260200191508051906020019080838360005b838110156101e15780820151818401526020810190506101c6565b50505050905090810190601f16801561020e5780820380516001836020036101000a031916815260200191505b5083810382528b818151815260200191508051906020019080838360005b8381101561024757808201518184015260208101905061022c565b50505050905090810190601f1680156102745780820380516001836020036101000a031916815260200191505b509b50505050505050505050505060405180910390f35b34801561029757600080fd5b506102c4600480360360208110156102ae57600080fd5b81019080803590602001909291905050506108b1565b604051808273ffffffffffffffffffffffffffffffffffffffff1673ffffffffffffffffffffffffffffffffffffffff16815260200191505060405180910390f35b34801561031257600080fd5b5061031b6108ef565b005b34801561032957600080fd5b5061036c6004803603602081101561034057600080fd5b81019080803573ffffffffffffffffffffffffffffffffffffffff169060200190929190505050610a2a565b6040518082815260200191505060405180910390f35b34801561038e57600080fd5b50610397610a42565b604051808273ffffffffffffffffffffffffffffffffffffffff1673ffffffffffffffffffffffffffffffffffffffff16815260200191505060405180910390f35b3480156103e557600080fd5b506103ee610a6b565b604051808215151515815260200191505060405180910390f35b34801561041457600080fd5b506104416004803603602081101561042b57600080fd5b8101908080359060200190929190505050610ac2565b005b34801561044f57600080fd5b5061047c6004803603602081101561046657600080fd5b8101908080359060200190929190505050610d3c565b604051808273ffffffffffffffffffffffffffffffffffffffff1673ffffffffffffffffffffffffffffffffffffffff16815260200191505060405180910390f35b3480156104ca57600080fd5b506104f7600480360360208110156104e157600080fd5b8101908080359060200190929190505050610d6f565b005b34801561050557600080fd5b506106566004803603604081101561051c57600080fd5b810190808035906020019064010000000081111561053957600080fd5b82018360208201111561054b57600080fd5b8035906020019184600183028401116401000000008311171561056d57600080fd5b91908080601f016020809104026020016040519081016040528093929190818152602001838380828437600081840152601f19601f820116905080830192505050505050509192919290803590602001906401000000008111156105d057600080fd5b8201836020820111156105e257600080fd5b8035906020019184600183028401116401000000008311171561060457600080fd5b91908080601f016020809104026020016040519081016040528093929190818152602001838380828437600081840152601f19601f820116905080830192505050505050509192919290505050610fe9565b005b34801561066457600080fd5b506106a76004803603602081101561067b57600080fd5b81019080803573ffffffffffffffffffffffffffffffffffffffff169060200190929190505050610ff7565b005b6001818154811015156106b857fe5b9060005260206000209060050201600091509050806000018054600181600116156101000203166002900480601f0160208091040260200160405190810160405280929190818152602001828054600181600116156101000203166002900480156107645780601f1061073957610100808354040283529160200191610764565b820191906000526020600020905b81548152906001019060200180831161074757829003601f168201915b505050505090806001018054600181600116156101000203166002900480601f0160208091040260200160405190810160405280929190818152602001828054600181600116156101000203166002900480156108025780601f106107d757610100808354040283529160200191610802565b820191906000526020600020905b8154815290600101906020018083116107e557829003601f168201915b5050505050908060020160009054906101000a900473ffffffffffffffffffffffffffffffffffffffff16908060020160149054906101000a900463ffffffff16908060020160189054906101000a900463ffffffff169080600201601c9054906101000a900461ffff16908060030154908060040160009054906101000a900460ff16908060040160019054906101000a900473ffffffffffffffffffffffffffffffffffffffff16905089565b6004818154811015156108c057fe5b906000526020600020016000915054906101000a900473ffffffffffffffffffffffffffffffffffffffff1681565b6108f7610a6b565b151561096b576040517f08c379a000000000000000000000000000000000000000000000000000000000815260040180806020018281038252600a8152602001807f4e6f74206f776e6572210000000000000000000000000000000000000000000081525060200191505060405180910390fd5b600073ffffffffffffffffffffffffffffffffffffffff166000809054906101000a900473ffffffffffffffffffffffffffffffffffffffff1673ffffffffffffffffffffffffffffffffffffffff167f8be0079c531659141344cd1fd0a4f28419497f9722a3daafe3b4186f6b6457e060405160405180910390a360008060006101000a81548173ffffffffffffffffffffffffffffffffffffffff021916908373ffffffffffffffffffffffffffffffffffffffff160217905550565b60036020528060005260406000206000915090505481565b60008060009054906101000a900473ffffffffffffffffffffffffffffffffffffffff16905090565b60008060009054906101000a900473ffffffffffffffffffffffffffffffffffffffff1673ffffffffffffffffffffffffffffffffffffffff163373ffffffffffffffffffffffffffffffffffffffff1614905090565b80600080905060008090505b600560003373ffffffffffffffffffffffffffffffffffffffff1673ffffffffffffffffffffffffffffffffffffffff16815260200190815260200160002080549050811015610b885782600560003373ffffffffffffffffffffffffffffffffffffffff1673ffffffffffffffffffffffffffffffffffffffff16815260200190815260200160002082815481101515610b6557fe5b90600052602060002001541415610b7b57610b88565b8080600101915050610ace565b50600081141515610c01576040517f08c379a00000000000000000000000000000000000000000000000000000000081526004018080602001828103825260198152602001807f416c726561647920726576696577207375626d6974746564210000000000000081525060200191505060405180910390fd5b6002600084815260200190815260200160002060009054906101000a900473ffffffffffffffffffffffffffffffffffffffff1673ffffffffffffffffffffffffffffffffffffffff163373ffffffffffffffffffffffffffffffffffffffff1614151515610cd8576040517f08c379a00000000000000000000000000000000000000000000000000000000081526004018080602001828103825260158152602001807f4f776e65722063616e206e6f742072657669657721000000000000000000000081525060200191505060405180910390fd5b6000600184815481101515610ce957fe5b9060005260206000209060050201905080600201601481819054906101000a900463ffffffff168092919060010191906101000a81548163ffffffff021916908363ffffffff1602179055505050505050565b60026020528060005260406000206000915054906101000a900473ffffffffffffffffffffffffffffffffffffffff1681565b80600080905060008090505b600560003373ffffffffffffffffffffffffffffffffffffffff1673ffffffffffffffffffffffffffffffffffffffff16815260200190815260200160002080549050811015610e355782600560003373ffffffffffffffffffffffffffffffffffffffff1673ffffffffffffffffffffffffffffffffffffffff16815260200190815260200160002082815481101515610e1257fe5b90600052602060002001541415610e2857610e35565b8080600101915050610d7b565b50600081141515610eae576040517f08c379a00000000000000000000000000000000000000000000000000000000081526004018080602001828103825260198152602001807f416c726561647920726576696577207375626d6974746564210000000000000081525060200191505060405180910390fd5b6002600084815260200190815260200160002060009054906101000a900473ffffffffffffffffffffffffffffffffffffffff1673ffffffffffffffffffffffffffffffffffffffff163373ffffffffffffffffffffffffffffffffffffffff1614151515610f85576040517f08c379a00000000000000000000000000000000000000000000000000000000081526004018080602001828103825260158152602001807f4f776e65722063616e206e6f742072657669657721000000000000000000000081525060200191505060405180910390fd5b6000600184815481101515610f9657fe5b9060005260206000209060050201905080600201601881819054906101000a900463ffffffff168092919060010191906101000a81548163ffffffff021916908363ffffffff1602179055505050505050565b610ff3828261107f565b5050565b610fff610a6b565b1515611073576040517f08c379a000000000000000000000000000000000000000000000000000000000815260040180806020018281038252600a8152602001807f4e6f74206f776e6572210000000000000000000000000000000000000000000081525060200191505060405180910390fd5b61107c81611466565b50565b6000600180610120604051908101604052808681526020018581526020013373ffffffffffffffffffffffffffffffffffffffff168152602001600063ffffffff168152602001600063ffffffff168152602001600061ffff16815260200160008152602001600060038111156110f257fe5b8152602001600073ffffffffffffffffffffffffffffffffffffffff168152509080600181540180825580915050906001820390600052602060002090600502016000909192909190915060008201518160000190805190602001906111599291906115c9565b5060208201518160010190805190602001906111769291906115c9565b5060408201518160020160006101000a81548173ffffffffffffffffffffffffffffffffffffffff021916908373ffffffffffffffffffffffffffffffffffffffff16021790555060608201518160020160146101000a81548163ffffffff021916908363ffffffff16021790555060808201518160020160186101000a81548163ffffffff021916908363ffffffff16021790555060a082015181600201601c6101000a81548161ffff021916908361ffff16021790555060c0820151816003015560e08201518160040160006101000a81548160ff0219169083600381111561125d57fe5b02179055506101008201518160040160016101000a81548173ffffffffffffffffffffffffffffffffffffffff021916908373ffffffffffffffffffffffffffffffffffffffff1602179055505050039050336002600083815260200190815260200160002060006101000a81548173ffffffffffffffffffffffffffffffffffffffff021916908373ffffffffffffffffffffffffffffffffffffffff160217905550600360003373ffffffffffffffffffffffffffffffffffffffff1673ffffffffffffffffffffffffffffffffffffffff168152602001908152602001600020600081548092919060010191905055507faa0217ba93f92c0171284bdaf11d170f0ba69ed14f4656509c31d0e71055c557818484604051808481526020018060200180602001838103835285818151815260200191508051906020019080838360005b838110156113be5780820151818401526020810190506113a3565b50505050905090810190601f1680156113eb5780820380516001836020036101000a031916815260200191505b50838103825284818151815260200191508051906020019080838360005b83811015611424578082015181840152602081019050611409565b50505050905090810190601f1680156114515780820380516001836020036101000a031916815260200191505b509550505050505060405180910390a1505050565b600073ffffffffffffffffffffffffffffffffffffffff168173ffffffffffffffffffffffffffffffffffffffff161415151561150b576040517f08c379a00000000000000000000000000000000000000000000000000000000081526004018080602001828103825260168152602001807f6e65774f776e6572203d3d20616464726573732830290000000000000000000081525060200191505060405180910390fd5b8073ffffffffffffffffffffffffffffffffffffffff166000809054906101000a900473ffffffffffffffffffffffffffffffffffffffff1673ffffffffffffffffffffffffffffffffffffffff167f8be0079c531659141344cd1fd0a4f28419497f9722a3daafe3b4186f6b6457e060405160405180910390a3806000806101000a81548173ffffffffffffffffffffffffffffffffffffffff021916908373ffffffffffffffffffffffffffffffffffffffff16021790555050565b828054600181600116156101000203166002900490600052602060002090601f016020900481019282601f1061160a57805160ff1916838001178555611638565b82800160010185558215611638579182015b8281111561163757825182559160200191906001019061161c565b5b5090506116459190611649565b5090565b61166b91905b8082111561166757600081600090555060010161164f565b5090565b9056fea165627a7a72305820b214c1f019038e17e888db0e1e2ea72e4308a037ee501842f4fdd645af61845a0029",
  "source": "pragma solidity ^0.5.0;\n\nimport \"./MetroBiki.sol\";\n//conditions under which a reviewer can review...\n\ncontract Review is BicycleRegister {\n\n    mapping(address => uint[]) reviewerToBicycle;\n\n    modifier notReviewed(uint _bicycleId) {\n        uint flag = 0;\n        for(uint i = 0; i < reviewerToBicycle[msg.sender].length; i++) {\n            if(reviewerToBicycle[msg.sender][i] == _bicycleId) {\n                flag == 1;\n                break;\n            }\n        }\n        require(flag == 0, \"Already review submitted!\");\n        _;\n    }\n\n    function upvoteBicycle(uint _bicycleId) public notReviewed(_bicycleId) {\n        require(msg.sender != bicycleToOwner[_bicycleId], \"Owner can not review!\");  \n        Bicycle storage testBicycle = bicycles[_bicycleId];\n        testBicycle.upvoteCount++;\n    }\n\n    function downvoteBicycle(uint _bicycleId) public notReviewed(_bicycleId) {  //seee this\n        require(msg.sender != bicycleToOwner[_bicycleId], \"Owner can not review!\");  \n        Bicycle storage testBicycle = bicycles[_bicycleId];\n        testBicycle.downvoteCount++;\n    }\n}",
  "sourcePath": "/home/anshu1/Desktop/Gauranga/contracts/metrobikitrade.sol",
  "compiler": {
    "name": "solc",
    "version": "0.5.0+commit.1d4f565a.Emscripten.clang"
  },
  "schemaVersion": "3.0.1",
  "updatedAt": "2019-03-17T06:31:14.231Z",
  "devdoc": {
    "methods": {
      "isOwner()": {
        "return": "true if `msg.sender` is the owner of the contract."
      },
      "owner()": {
        "return": "the address of the owner."
      },
      "renounceOwnership()": {
        "details": "Allows the current owner to relinquish control of the contract."
      },
      "transferOwnership(address)": {
        "details": "Allows the current owner to transfer control of the contract to a newOwner.",
        "params": {
          "newOwner": "The address to transfer ownership to."
        }
      }
    }
  },
  "userdoc": {
    "methods": {
      "renounceOwnership()": {
        "notice": "Renouncing to ownership will leave the contract without an owner. It will not be possible to call the functions with the `onlyOwner` modifier anymore."
      }
    }
  }
}